{
    "contractName": "EventTicketsFactory",
    "abi": [
        {
            "anonymous": false,
            "inputs": [
                {
                    "indexed": false,
                    "internalType": "address",
                    "name": "ntfAddress",
                    "type": "address"
                },
                {
                    "indexed": false,
                    "internalType": "address",
                    "name": "marketplaceAddress",
                    "type": "address"
                }
            ],
            "name": "Created",
            "type": "event"
        },
        {
            "anonymous": false,
            "inputs": [
                {
                    "indexed": true,
                    "internalType": "address",
                    "name": "previousOwner",
                    "type": "address"
                },
                {
                    "indexed": true,
                    "internalType": "address",
                    "name": "newOwner",
                    "type": "address"
                }
            ],
            "name": "OwnershipTransferred",
            "type": "event"
        },
        {
            "inputs": [],
            "name": "owner",
            "outputs": [
                {
                    "internalType": "address",
                    "name": "",
                    "type": "address"
                }
            ],
            "stateMutability": "view",
            "type": "function",
            "constant": true
        },
        {
            "inputs": [],
            "name": "renounceOwnership",
            "outputs": [],
            "stateMutability": "nonpayable",
            "type": "function"
        },
        {
            "inputs": [
                {
                    "internalType": "address",
                    "name": "newOwner",
                    "type": "address"
                }
            ],
            "name": "transferOwnership",
            "outputs": [],
            "stateMutability": "nonpayable",
            "type": "function"
        },
        {
            "inputs": [
                {
                    "internalType": "contract EventToken",
                    "name": "token",
                    "type": "address"
                },
                {
                    "internalType": "string",
                    "name": "eventName",
                    "type": "string"
                },
                {
                    "internalType": "string",
                    "name": "eventSymbol",
                    "type": "string"
                },
                {
                    "internalType": "uint256",
                    "name": "ticketPrice",
                    "type": "uint256"
                },
                {
                    "internalType": "uint256",
                    "name": "totalSupply",
                    "type": "uint256"
                },
                {
                    "internalType": "uint256",
                    "name": "commission",
                    "type": "uint256"
                },
                {
                    "internalType": "uint256",
                    "name": "maxSell",
                    "type": "uint256"
                }
            ],
            "name": "createNewEvent",
            "outputs": [
                {
                    "internalType": "address",
                    "name": "",
                    "type": "address"
                }
            ],
            "stateMutability": "nonpayable",
            "type": "function"
        },
        {
            "inputs": [],
            "name": "getActiveEvents",
            "outputs": [
                {
                    "internalType": "address[]",
                    "name": "",
                    "type": "address[]"
                }
            ],
            "stateMutability": "view",
            "type": "function",
            "constant": true
        },
        {
            "inputs": [
                {
                    "internalType": "address",
                    "name": "eventAddress",
                    "type": "address"
                }
            ],
            "name": "getEventDetails",
            "outputs": [
                {
                    "internalType": "string",
                    "name": "",
                    "type": "string"
                },
                {
                    "internalType": "string",
                    "name": "",
                    "type": "string"
                },
                {
                    "internalType": "uint256",
                    "name": "",
                    "type": "uint256"
                },
                {
                    "internalType": "uint256",
                    "name": "",
                    "type": "uint256"
                },
                {
                    "internalType": "address",
                    "name": "",
                    "type": "address"
                }
            ],
            "stateMutability": "view",
            "type": "function",
            "constant": true
        }
    ],
    "bytecode": "0x608060405234801561001057600080fd5b50600061001b61006a565b600080546001600160a01b0319166001600160a01b0383169081178255604051929350917f8be0079c531659141344cd1fd0a4f28419497f9722a3daafe3b4186f6b6457e0908290a35061006e565b3390565b61437d8061007d6000396000f3fe60806040523480156200001157600080fd5b50600436106200006a5760003560e01c8063118648ea146200006f578063294fbbf114620000cb5780635ab6fb0d14620001f6578063715018a614620003695780638da5cb5b1462000375578063f2fde38b146200037f575b600080fd5b62000079620003a8565b60408051602080825283518183015283519192839290830191858101910280838360005b83811015620000b75781810151838201526020016200009d565b505050509050019250505060405180910390f35b620000f460048036036020811015620000e357600080fd5b50356001600160a01b03166200040c565b604051808060200180602001868152602001858152602001846001600160a01b03168152602001838103835288818151815260200191508051906020019080838360005b838110156200015257818101518382015260200162000138565b50505050905090810190601f168015620001805780820380516001836020036101000a031916815260200191505b50838103825287518152875160209182019189019080838360005b83811015620001b55781810151838201526020016200019b565b50505050905090810190601f168015620001e35780820380516001836020036101000a031916815260200191505b5097505050505050505060405180910390f35b6200034d600480360360e08110156200020e57600080fd5b6001600160a01b0382351691908101906040810160208201356401000000008111156200023a57600080fd5b8201836020820111156200024d57600080fd5b803590602001918460018302840111640100000000831117156200027057600080fd5b91908080601f0160208091040260200160405190810160405280939291908181526020018383808284376000920191909152509295949360208101935035915050640100000000811115620002c457600080fd5b820183602082011115620002d757600080fd5b80359060200191846001830284011164010000000083111715620002fa57600080fd5b91908080601f01602080910402602001604051908101604052809392919081815260200183838082843760009201919091525092955050823593505050602081013590604081013590606001356200057e565b604080516001600160a01b039092168252519081900360200190f35b62000373620008b5565b005b6200034d62000978565b62000373600480360360208110156200039757600080fd5b50356001600160a01b031662000987565b606060018054806020026020016040519081016040528092919081815260200182805480156200040257602002820191906000526020600020905b81546001600160a01b03168152600190910190602001808311620003e3575b5050505050905090565b6001600160a01b038082166000908152600260208181526040808420808401546003820154600483015483548551601f6000196001848116156101000291909101909316999099049889018890048802810188019096528786526060998a9998899889989388019695949092169291879190830182828015620004d35780601f10620004a757610100808354040283529160200191620004d3565b820191906000526020600020905b815481529060010190602001808311620004b557829003601f168201915b5050875460408051602060026001851615610100026000190190941693909304601f8101849004840282018401909252818152959a5089945092508401905082828015620005655780601f10620005395761010080835404028352916020019162000565565b820191906000526020600020905b8154815290600101906020018083116200054757829003601f168201915b50989f939e50959c50939a509198509650505050505050565b60006200058a62000aa2565b6001600160a01b03166200059d62000978565b6001600160a01b031614620005f9576040805162461bcd60e51b815260206004820181905260248201527f4f776e61626c653a2063616c6c6572206973206e6f7420746865206f776e6572604482015290519081900360640190fd5b600087878787878733604051620006109062000aa6565b808060200180602001888152602001878152602001868152602001858152602001846001600160a01b0316815260200183810383528a818151815260200191508051906020019080838360005b83811015620006775781810151838201526020016200065d565b50505050905090810190601f168015620006a55780820380516001836020036101000a031916815260200191505b5083810382528951815289516020918201918b019080838360005b83811015620006da578181015183820152602001620006c0565b50505050905090810190601f168015620007085780820380516001836020036101000a031916815260200191505b509950505050505050505050604051809103906000f08015801562000731573d6000803e3d6000fd5b50905060008982604051620007469062000ab4565b6001600160a01b03928316815291166020820152604080519182900301906000f0801580156200077a573d6000803e3d6000fd5b50600180548082019091557fb10e2d527612073b26eecdfd717e6a320cf44b4afac2b0732d9fcbe2b7fa0cf60180546001600160a01b0319166001600160a01b038581169182179092556040805160a0810182528d815260208082018e90528183018d9052606082018c9052938516608082015260009283526002845291208151805194955086949293919262000815928492019062000ac2565b50602082810151805162000830926001850192019062000ac2565b50604082810151600283015560608301516003830155608090920151600490910180546001600160a01b0319166001600160a01b0392831617905581518382168152908416602082015281517f587ece4cd19692c5be1a4184503d607d45542d2aca0698c0068f52e09ccb541c929181900390910190a19a9950505050505050505050565b620008bf62000aa2565b6001600160a01b0316620008d262000978565b6001600160a01b0316146200092e576040805162461bcd60e51b815260206004820181905260248201527f4f776e61626c653a2063616c6c6572206973206e6f7420746865206f776e6572604482015290519081900360640190fd5b600080546040516001600160a01b03909116907f8be0079c531659141344cd1fd0a4f28419497f9722a3daafe3b4186f6b6457e0908390a3600080546001600160a01b0319169055565b6000546001600160a01b031690565b6200099162000aa2565b6001600160a01b0316620009a462000978565b6001600160a01b03161462000a00576040805162461bcd60e51b815260206004820181905260248201527f4f776e61626c653a2063616c6c6572206973206e6f7420746865206f776e6572604482015290519081900360640190fd5b6001600160a01b03811662000a475760405162461bcd60e51b8152600401808060200182810382526026815260200180620043226026913960400191505060405180910390fd5b600080546040516001600160a01b03808516939216917f8be0079c531659141344cd1fd0a4f28419497f9722a3daafe3b4186f6b6457e091a3600080546001600160a01b0319166001600160a01b0392909216919091179055565b3390565b61313f8062000b5f83390190565b6106848062003c9e83390190565b828054600181600116156101000203166002900490600052602060002090601f016020900481019282601f1062000b0557805160ff191683800117855562000b35565b8280016001018555821562000b35579182015b8281111562000b3557825182559160200191906001019062000b18565b5062000b4392915062000b47565b5090565b5b8082111562000b43576000815560010162000b4856fe60806040523480156200001157600080fd5b506040516200313f3803806200313f833981810160405260e08110156200003757600080fd5b81019080805160405193929190846401000000008211156200005857600080fd5b9083019060208201858111156200006e57600080fd5b82516401000000008111828201881017156200008957600080fd5b82525081516020918201929091019080838360005b83811015620000b85781810151838201526020016200009e565b50505050905090810190601f168015620000e65780820380516001836020036101000a031916815260200191505b50604052602001805160405193929190846401000000008211156200010a57600080fd5b9083019060208201858111156200012057600080fd5b82516401000000008111828201881017156200013b57600080fd5b82525081516020918201929091019080838360005b838110156200016a57818101518382015260200162000150565b50505050905090810190601f168015620001985780820380516001836020036101000a031916815260200191505b5060409081526020820151908201516060830151608084015160a09094015192955090935091908686620001ec7f01ffc9a70000000000000000000000000000000000000000000000000000000062000306565b815162000201906007906020850190620004ec565b50805162000217906008906020840190620004ec565b50620002437f80ac58cd0000000000000000000000000000000000000000000000000000000062000306565b6200026e7f5b5e139f0000000000000000000000000000000000000000000000000000000062000306565b620002997f780e9d630000000000000000000000000000000000000000000000000000000062000306565b50620002c890507f9f2df0fed2c77648de5860a4cc508cd0818c85b8b8a1ab4ceeef8d981c8956a682620003d8565b601094909455601192909255600d80546001600160a01b0319166001600160a01b039094169390931790925560129190915560135550620005889050565b7fffffffff0000000000000000000000000000000000000000000000000000000080821614156200039857604080517f08c379a000000000000000000000000000000000000000000000000000000000815260206004820152601c60248201527f4552433136353a20696e76616c696420696e7465726661636520696400000000604482015290519081900360640190fd5b7fffffffff00000000000000000000000000000000000000000000000000000000166000908152600160208190526040909120805460ff19169091179055565b620003e48282620003e8565b5050565b6000828152602081815260409091206200040d9183906200181662000461821b17901c565b15620003e4576200041d62000481565b6001600160a01b0316816001600160a01b0316837f2f8788117e7eff1d82e926ec794901d17c78024a50270940304540a733656f0d60405160405180910390a45050565b600062000478836001600160a01b03841662000485565b90505b92915050565b3390565b6000620004938383620004d4565b620004cb575081546001818101845560008481526020808220909301849055845484825282860190935260409020919091556200047b565b5060006200047b565b60009081526001919091016020526040902054151590565b828054600181600116156101000203166002900490600052602060002090601f016020900481019282601f106200052f57805160ff19168380011785556200055f565b828001600101855582156200055f579182015b828111156200055f57825182559160200191906001019062000542565b506200056d92915062000571565b5090565b5b808211156200056d576000815560010162000572565b612ba780620005986000396000f3fe608060405234801561001057600080fd5b506004361061023d5760003560e01c80636afadefb1161013b578063b632c9e4116100b8578063d53913931161007c578063d53913931461081d578063d547741f14610825578063e3278ad614610851578063e65d6b4914610859578063e985e9c5146108615761023d565b8063b632c9e4146106cb578063b88d4fde146106f1578063c83b4590146107b7578063c87b56dd146107e3578063ca15c873146108005761023d565b80639010d07c116100ff5780639010d07c1461063e57806391d148541461066157806395d89b411461068d578063a217fddf14610695578063a22cb4651461069d5761023d565b80636afadefb146105b65780636c0360eb146105dc57806370a08231146105e4578063750e024c1461060a57806387bb7ae0146106365761023d565b806324c14160116101c957806342842e0e1161018d57806342842e0e146104f75780634f6ccce71461052d578063569e35db1461054a5780636352211e1461056757806364d7f44f146105845761023d565b806324c14160146103de5780632f2ff15d1461041b5780632f745c591461044757806335fe12d81461047357806336568abe146104cb5761023d565b8063095ea7b311610210578063095ea7b31461034d5780630b7055781461037b57806318160ddd1461038357806323b872dd1461038b578063248a9ca3146103c15761023d565b806301ffc9a714610242578063065366ee1461027d57806306fdde0314610297578063081812fc14610314575b600080fd5b6102696004803603602081101561025857600080fd5b50356001600160e01b03191661088f565b604080519115158252519081900360200190f35b6102856108b2565b60408051918252519081900360200190f35b61029f6108c3565b6040805160208082528351818301528351919283929083019185019080838360005b838110156102d95781810151838201526020016102c1565b50505050905090810190601f1680156103065780820380516001836020036101000a031916815260200191505b509250505060405180910390f35b6103316004803603602081101561032a57600080fd5b5035610959565b604080516001600160a01b039092168252519081900360200190f35b6103796004803603604081101561036357600080fd5b506001600160a01b0381351690602001356109bb565b005b610331610a96565b610285610aa5565b610379600480360360608110156103a157600080fd5b506001600160a01b03813581169160208101359091169060400135610ab1565b610285600480360360208110156103d757600080fd5b5035610b08565b6103fb600480360360208110156103f457600080fd5b5035610b1d565b604080519384526020840192909252151582820152519081900360600190f35b6103796004803603604081101561043157600080fd5b50803590602001356001600160a01b0316610b42565b6102856004803603604081101561045d57600080fd5b506001600160a01b038135169060200135610bae565b61047b610bd9565b60408051602080825283518183015283519192839290830191858101910280838360005b838110156104b757818101518382015260200161049f565b505050509050019250505060405180910390f35b610379600480360360408110156104e157600080fd5b50803590602001356001600160a01b0316610c30565b6103796004803603606081101561050d57600080fd5b506001600160a01b03813581169160208101359091169060400135610c91565b6102856004803603602081101561054357600080fd5b5035610cac565b6102856004803603602081101561056057600080fd5b5035610cc2565b6103316004803603602081101561057d57600080fd5b5035610cd7565b6103796004803603606081101561059a57600080fd5b50803590602081013590604001356001600160a01b0316610cff565b610379600480360360208110156105cc57600080fd5b50356001600160a01b0316610e38565b61029f610f56565b610285600480360360208110156105fa57600080fd5b50356001600160a01b0316610fb7565b6103796004803603604081101561062057600080fd5b50803590602001356001600160a01b031661101f565b6102856110e5565b6103316004803603604081101561065457600080fd5b50803590602001356110eb565b6102696004803603604081101561067757600080fd5b50803590602001356001600160a01b0316611103565b61029f61111b565b61028561117c565b610379600480360360408110156106b357600080fd5b506001600160a01b0381351690602001351515611181565b61047b600480360360208110156106e157600080fd5b50356001600160a01b0316611286565b6103796004803603608081101561070757600080fd5b6001600160a01b0382358116926020810135909116916040820135919081019060808101606082013564010000000081111561074257600080fd5b82018360208201111561075457600080fd5b8035906020019184600183028401116401000000008311171561077657600080fd5b91908080601f0160208091040260200160405190810160405280939291908181526020018383808284376000920191909152509295506112f2945050505050565b610379600480360360408110156107cd57600080fd5b506001600160a01b03813516906020013561134a565b61029f600480360360208110156107f957600080fd5b50356114bf565b6102856004803603602081101561081657600080fd5b5035611742565b610285611759565b6103796004803603604081101561083b57600080fd5b50803590602001356001600160a01b031661177d565b6102856117d6565b6102856117e2565b6102696004803603604081101561087757600080fd5b506001600160a01b03813581169160200135166117e8565b6001600160e01b0319811660009081526001602052604090205460ff165b919050565b60006108be600c61182b565b905090565b60078054604080516020601f600260001961010060018816150201909516949094049384018190048102820181019092528281526060939092909183018282801561094f5780601f106109245761010080835404028352916020019161094f565b820191906000526020600020905b81548152906001019060200180831161093257829003601f168201915b5050505050905090565b60006109648261182f565b61099f5760405162461bcd60e51b815260040180806020018281038252602c815260200180612a1c602c913960400191505060405180910390fd5b506000908152600560205260409020546001600160a01b031690565b60006109c682610cd7565b9050806001600160a01b0316836001600160a01b03161415610a195760405162461bcd60e51b8152600401808060200182810382526021815260200180612aa06021913960400191505060405180910390fd5b806001600160a01b0316610a2b61183c565b6001600160a01b03161480610a4c5750610a4c81610a4761183c565b6117e8565b610a875760405162461bcd60e51b81526004018080602001828103825260388152602001806129416038913960400191505060405180910390fd5b610a918383611840565b505050565b600d546001600160a01b031690565b60006108be60036118ae565b610ac2610abc61183c565b826118b9565b610afd5760405162461bcd60e51b8152600401808060200182810382526031815260200180612ac16031913960400191505060405180910390fd5b610a9183838361195d565b60009081526020819052604090206002015490565b600090815260146020526040902080546001820154600290920154909260ff90911690565b600082815260208190526040902060020154610b6590610b6061183c565b611103565b610ba05760405162461bcd60e51b815260040180806020018281038252602f81526020018061283e602f913960400191505060405180910390fd5b610baa8282611aa9565b5050565b6001600160a01b0382166000908152600260205260408120610bd09083611b12565b90505b92915050565b6060600f80548060200260200160405190810160405280929190818152602001828054801561094f57602002820191906000526020600020905b815481526020019060010190808311610c13575050505050905090565b610c3861183c565b6001600160a01b0316816001600160a01b031614610c875760405162461bcd60e51b815260040180806020018281038252602f815260200180612b21602f913960400191505060405180910390fd5b610baa8282611b1e565b610a91838383604051806020016040528060008152506112f2565b600080610cba600384611b87565b509392505050565b60009081526014602052604090206001015490565b6000610bd3826040518060600160405280602981526020016129a36029913960039190611ba3565b6000838152601460205260409020546013548390606490830204820111610d575760405162461bcd60e51b8152600401808060200182810382526022815260200180612b506022913960400191505060405180910390fd5b610d837f9f2df0fed2c77648de5860a4cc508cd0818c85b8b8a1ab4ceeef8d981c8956a6610b6061183c565b15610dbf5760405162461bcd60e51b815260040180806020018281038252602f815260200180612af2602f913960400191505060405180910390fd5b600084815260146020526040902060018082018590556002909101805460ff19169091179055610dee84611bba565b610e2857600f80546001810182556000919091527f8d1108e10bcb7c27dddfc02ed9d693a074039d026cf4ea4240b40f7d581ac802018490555b610e3282856109bb565b50505050565b610e42600c611c02565b6000610e4e600c61182b565b9050610e5981610cd7565b6001600160a01b0316336001600160a01b031614610ebe576040805162461bcd60e51b815260206004820152601d60248201527f4f6e6c7920696e697469616c20707572636861736520616c6c6f776564000000604482015290519081900360640190fd5b610ed1610eca82610cd7565b8383610ab1565b610eda82611c0b565b610f2a57600e80546001810182556000919091527fbb7b4a454dc3493923482f07822329ed19e8244eff582cc204f8554c3620c3fd0180546001600160a01b0319166001600160a01b0384161790555b6001600160a01b0390911660009081526015602090815260408220805460018101825590835291200155565b600a8054604080516020601f600260001961010060018816150201909516949094049384018190048102820181019092528281526060939092909183018282801561094f5780601f106109245761010080835404028352916020019161094f565b60006001600160a01b038216610ffe5760405162461bcd60e51b815260040180806020018281038252602a815260200180612979602a913960400191505060405180910390fd5b6001600160a01b0382166000908152600260205260409020610bd3906118ae565b60115461102c600b61182b565b1061107e576040805162461bcd60e51b815260206004820152601e60248201527f4d6178696d756d207469636b6574206c696d6974206578636565646564210000604482015290519081900360640190fd5b6103e88261108a6117d6565b0111156110c85760405162461bcd60e51b815260040180806020018281038252602e8152602001806129cc602e913960400191505060405180910390fd5b60005b82811015610a91576110dc82611c5d565b506001016110cb565b60105490565b6000828152602081905260408120610bd09083611b12565b6000828152602081905260408120610bd09083611d3a565b60088054604080516020601f600260001961010060018816150201909516949094049384018190048102820181019092528281526060939092909183018282801561094f5780601f106109245761010080835404028352916020019161094f565b600081565b61118961183c565b6001600160a01b0316826001600160a01b031614156111ef576040805162461bcd60e51b815260206004820152601960248201527f4552433732313a20617070726f766520746f2063616c6c657200000000000000604482015290519081900360640190fd5b80600660006111fc61183c565b6001600160a01b03908116825260208083019390935260409182016000908120918716808252919093529120805460ff19169215159290921790915561124061183c565b6001600160a01b03167f17307eab39ab6107e8899845ad3d59bd9653f200f220920489ca2b5937696c318360405180821515815260200191505060405180910390a35050565b6001600160a01b0381166000908152601560209081526040918290208054835181840281018401909452808452606093928301828280156112e657602002820191906000526020600020905b8154815260200190600101908083116112d2575b50505050509050919050565b6113036112fd61183c565b836118b9565b61133e5760405162461bcd60e51b8152600401808060200182810382526031815260200180612ac16031913960400191505060405180910390fd5b610e3284848484611d4f565b600081815260146020526040902080546001909101546013548392919081906064908402048301116113ad5760405162461bcd60e51b8152600401808060200182810382526022815260200180612b506022913960400191505060405180910390fd5b60006113b885610cd7565b6000868152601460205260409020600101549091506113d8828888610ab1565b6113e187611c0b565b61143157600e80546001810182556000919091527fbb7b4a454dc3493923482f07822329ed19e8244eff582cc204f8554c3620c3fd0180546001600160a01b0319166001600160a01b0389161790555b6001600160a01b0387166000908152601560209081526040822080546001810182559083529120018690556114668287611da1565b61146f86611ec0565b604080516060810182529182526000602080840182815284840183815299835260149091529190209151825551600182015594516002909501805460ff1916951515959095179094555050505050565b60606114ca8261182f565b6115055760405162461bcd60e51b815260040180806020018281038252602f815260200180612a71602f913960400191505060405180910390fd5b60008281526009602090815260409182902080548351601f600260001961010060018616150201909316929092049182018490048402810184019094528084526060939283018282801561159a5780601f1061156f5761010080835404028352916020019161159a565b820191906000526020600020905b81548152906001019060200180831161157d57829003601f168201915b5050505050905060606115ab610f56565b90508051600014156115bf575090506108ad565b8151156116805780826040516020018083805190602001908083835b602083106115fa5780518252601f1990920191602091820191016115db565b51815160209384036101000a600019018019909216911617905285519190930192850191508083835b602083106116425780518252601f199092019160209182019101611623565b6001836020036101000a03801982511681845116808217855250505050505090500192505050604051602081830303815290604052925050506108ad565b8061168a85611f61565b6040516020018083805190602001908083835b602083106116bc5780518252601f19909201916020918201910161169d565b51815160209384036101000a600019018019909216911617905285519190930192850191508083835b602083106117045780518252601f1990920191602091820191016116e5565b6001836020036101000a0380198251168184511680821785525050505050509050019250505060405160208183030381529060405292505050919050565b6000818152602081905260408120610bd3906118ae565b7f9f2df0fed2c77648de5860a4cc508cd0818c85b8b8a1ab4ceeef8d981c8956a681565b60008281526020819052604090206002015461179b90610b6061183c565b610c875760405162461bcd60e51b81526004018080602001828103825260308152602001806128ef6030913960400191505060405180910390fd5b60006108be600b61182b565b60125490565b6001600160a01b03918216600090815260066020908152604080832093909416825291909152205460ff1690565b6000610bd0836001600160a01b03841661203c565b5490565b6000610bd3600383612086565b3390565b600081815260056020526040902080546001600160a01b0319166001600160a01b038416908117909155819061187582610cd7565b6001600160a01b03167f8c5be1e5ebec7d5bd14f71427d1e84f3dd0314c0f7b2291e5b200ac8c7c3b92560405160405180910390a45050565b6000610bd38261182b565b60006118c48261182f565b6118ff5760405162461bcd60e51b815260040180806020018281038252602c8152602001806128c3602c913960400191505060405180910390fd5b600061190a83610cd7565b9050806001600160a01b0316846001600160a01b031614806119455750836001600160a01b031661193a84610959565b6001600160a01b0316145b80611955575061195581856117e8565b949350505050565b826001600160a01b031661197082610cd7565b6001600160a01b0316146119b55760405162461bcd60e51b8152600401808060200182810382526029815260200180612a486029913960400191505060405180910390fd5b6001600160a01b0382166119fa5760405162461bcd60e51b815260040180806020018281038252602481526020018061289f6024913960400191505060405180910390fd5b611a05838383610a91565b611a10600082611840565b6001600160a01b0383166000908152600260205260409020611a329082612092565b506001600160a01b0382166000908152600260205260409020611a55908261209e565b50611a62600382846120aa565b5080826001600160a01b0316846001600160a01b03167fddf252ad1be2c89b69c2b068fc378daa952ba7f163c4a11628f55a4df523b3ef60405160405180910390a4505050565b6000828152602081905260409020611ac19082611816565b15610baa57611ace61183c565b6001600160a01b0316816001600160a01b0316837f2f8788117e7eff1d82e926ec794901d17c78024a50270940304540a733656f0d60405160405180910390a45050565b6000610bd083836120c0565b6000828152602081905260409020611b369082612124565b15610baa57611b4361183c565b6001600160a01b0316816001600160a01b0316837ff6391f5c32d9c69d2a47ea670b442974b53935d1edc7fd64eb21e047a839171b60405160405180910390a45050565b6000808080611b968686612139565b9097909650945050505050565b6000611bb08484846121b4565b90505b9392505050565b6000805b600f54811015611bf95782600f8281548110611bd657fe5b90600052602060002001541415611bf15760019150506108ad565b600101611bbe565b50600092915050565b80546001019055565b6000805b600e54811015611bf957826001600160a01b0316600e8281548110611c3057fe5b6000918252602090912001546001600160a01b03161415611c555760019150506108ad565b600101611c0f565b6000611c8b7f9f2df0fed2c77648de5860a4cc508cd0818c85b8b8a1ab4ceeef8d981c8956a6610b6061183c565b611cc65760405162461bcd60e51b815260040180806020018281038252602281526020018061291f6022913960400191505060405180910390fd5b611cd0600b611c02565b6000611cdc600b61182b565b9050611ce8838261227e565b60408051606081018252601054815260006020808301828152838501838152868452601490925293909120915182559151600182015590516002909101805460ff191691151591909117905592915050565b6000610bd0836001600160a01b0384166123ac565b611d5a84848461195d565b611d66848484846123c4565b610e325760405162461bcd60e51b815260040180806020018281038252603281526020018061286d6032913960400191505060405180910390fd5b6001600160a01b038216600090815260156020526040812054905b81811015610e32576001600160a01b0384166000908152601560205260409020805484919083908110611deb57fe5b90600052602060002001541415611eb857600181015b82811015611e7f576001600160a01b0385166000908152601560205260409020805482908110611e2d57fe5b906000526020600020015460156000876001600160a01b03166001600160a01b031681526020019081526020016000206001830381548110611e6b57fe5b600091825260209091200155600101611e01565b506001600160a01b0384166000908152601560205260409020805480611ea157fe5b600190038181906000526020600020016000905590555b600101611dbc565b600f5460005b81811015610a915782600f8281548110611edc57fe5b90600052602060002001541415611f5957600181015b82811015611f3657600f8181548110611f0757fe5b9060005260206000200154600f6001830381548110611f2257fe5b600091825260209091200155600101611ef2565b50600f805480611f4257fe5b600190038181906000526020600020016000905590555b600101611ec6565b606081611f8657506040805180820190915260018152600360fc1b60208201526108ad565b8160005b8115611f9e57600101600a82049150611f8a565b60608167ffffffffffffffff81118015611fb757600080fd5b506040519080825280601f01601f191660200182016040528015611fe2576020820181803683370190505b50859350905060001982015b831561203357600a840660300160f81b8282806001900393508151811061201157fe5b60200101906001600160f81b031916908160001a905350600a84049350611fee565b50949350505050565b600061204883836123ac565b61207e57508154600181810184556000848152602080822090930184905584548482528286019093526040902091909155610bd3565b506000610bd3565b6000610bd083836123ac565b6000610bd0838361252c565b6000610bd0838361203c565b6000611bb084846001600160a01b0385166125f2565b815460009082106121025760405162461bcd60e51b815260040180806020018281038252602281526020018061281c6022913960400191505060405180910390fd5b82600001828154811061211157fe5b9060005260206000200154905092915050565b6000610bd0836001600160a01b03841661252c565b81546000908190831061217d5760405162461bcd60e51b81526004018080602001828103825260228152602001806129fa6022913960400191505060405180910390fd5b600084600001848154811061218e57fe5b906000526020600020906002020190508060000154816001015492509250509250929050565b6000828152600184016020526040812054828161224f5760405162461bcd60e51b81526004018080602001828103825283818151815260200191508051906020019080838360005b838110156122145781810151838201526020016121fc565b50505050905090810190601f1680156122415780820380516001836020036101000a031916815260200191505b509250505060405180910390fd5b5084600001600182038154811061226257fe5b9060005260206000209060020201600101549150509392505050565b6001600160a01b0382166122d9576040805162461bcd60e51b815260206004820181905260248201527f4552433732313a206d696e7420746f20746865207a65726f2061646472657373604482015290519081900360640190fd5b6122e28161182f565b15612334576040805162461bcd60e51b815260206004820152601c60248201527f4552433732313a20746f6b656e20616c7265616479206d696e74656400000000604482015290519081900360640190fd5b61234060008383610a91565b6001600160a01b0382166000908152600260205260409020612362908261209e565b5061236f600382846120aa565b5060405181906001600160a01b038416906000907fddf252ad1be2c89b69c2b068fc378daa952ba7f163c4a11628f55a4df523b3ef908290a45050565b60009081526001919091016020526040902054151590565b60006123d8846001600160a01b0316612689565b6123e457506001611955565b60606124f2630a85bd0160e11b6123f961183c565b88878760405160240180856001600160a01b03168152602001846001600160a01b0316815260200183815260200180602001828103825283818151815260200191508051906020019080838360005b83811015612460578181015183820152602001612448565b50505050905090810190601f16801561248d5780820380516001836020036101000a031916815260200191505b5095505050505050604051602081830303815290604052906001600160e01b0319166020820180516001600160e01b03838183161783525050505060405180606001604052806032815260200161286d603291396001600160a01b038816919061268f565b9050600081806020019051602081101561250b57600080fd5b50516001600160e01b031916630a85bd0160e11b1492505050949350505050565b600081815260018301602052604081205480156125e8578354600019808301919081019060009087908390811061255f57fe5b906000526020600020015490508087600001848154811061257c57fe5b6000918252602080832090910192909255828152600189810190925260409020908401905586548790806125ac57fe5b60019003818190600052602060002001600090559055866001016000878152602001908152602001600020600090556001945050505050610bd3565b6000915050610bd3565b600082815260018401602052604081205480612657575050604080518082018252838152602080820184815286546001818101895560008981528481209551600290930290950191825591519082015586548684528188019092529290912055611bb3565b8285600001600183038154811061266a57fe5b9060005260206000209060020201600101819055506000915050611bb3565b3b151590565b6060611bb08484600085856126a385612689565b6126f4576040805162461bcd60e51b815260206004820152601d60248201527f416464726573733a2063616c6c20746f206e6f6e2d636f6e7472616374000000604482015290519081900360640190fd5b60006060866001600160a01b031685876040518082805190602001908083835b602083106127335780518252601f199092019160209182019101612714565b6001836020036101000a03801982511681845116808217855250505050505090500191505060006040518083038185875af1925050503d8060008114612795576040519150601f19603f3d011682016040523d82523d6000602084013e61279a565b606091505b50915091506127aa8282866127b5565b979650505050505050565b606083156127c4575081611bb3565b8251156127d45782518084602001fd5b60405162461bcd60e51b81526020600482018181528451602484015284518593919283926044019190850190808383600083156122145781810151838201526020016121fc56fe456e756d657261626c655365743a20696e646578206f7574206f6620626f756e6473416363657373436f6e74726f6c3a2073656e646572206d75737420626520616e2061646d696e20746f206772616e744552433732313a207472616e7366657220746f206e6f6e20455243373231526563656976657220696d706c656d656e7465724552433732313a207472616e7366657220746f20746865207a65726f20616464726573734552433732313a206f70657261746f7220717565727920666f72206e6f6e6578697374656e7420746f6b656e416363657373436f6e74726f6c3a2073656e646572206d75737420626520616e2061646d696e20746f207265766f6b6555736572206d7573742068617665206d696e74657220726f6c6520746f206d696e744552433732313a20617070726f76652063616c6c6572206973206e6f74206f776e6572206e6f7220617070726f76656420666f7220616c6c4552433732313a2062616c616e636520717565727920666f7220746865207a65726f20616464726573734552433732313a206f776e657220717565727920666f72206e6f6e6578697374656e7420746f6b656e4e756d626572206f66207469636b6574732065786365656473206d6178696d756d207469636b657420636f756e74456e756d657261626c654d61703a20696e646578206f7574206f6620626f756e64734552433732313a20617070726f76656420717565727920666f72206e6f6e6578697374656e7420746f6b656e4552433732313a207472616e73666572206f6620746f6b656e2074686174206973206e6f74206f776e4552433732314d657461646174613a2055524920717565727920666f72206e6f6e6578697374656e7420746f6b656e4552433732313a20617070726f76616c20746f2063757272656e74206f776e65724552433732313a207472616e736665722063616c6c6572206973206e6f74206f776e6572206e6f7220617070726f76656446756e6374696f6e616c697479206f6e6c7920616c6c6f77656420666f72207365636f6e64617279206d61726b6574416363657373436f6e74726f6c3a2063616e206f6e6c792072656e6f756e636520726f6c657320666f722073656c6652652d73656c6c696e67207072696365206973206d6f7265207468616e2031313025a2646970667358221220685519fd7ff6056ee6382ab8d6a8d475cb0b1d77fe9cb78dc4f919e8b0312f0a64736f6c634300060c0033608060405234801561001057600080fd5b506040516106843803806106848339818101604052604081101561003357600080fd5b508051602091820151600080546001600160a01b038085166001600160a01b0319928316179092556001805483851692169190911790819055604080517f0b7055780000000000000000000000000000000000000000000000000000000081529051949593949190921692630b7055789260048082019391829003018186803b1580156100bf57600080fd5b505afa1580156100d3573d6000803e3d6000fd5b505050506040513d60208110156100e957600080fd5b5051600280546001600160a01b0319166001600160a01b039092169190911790555061056890508061011c6000396000f3fe608060405234801561001057600080fd5b50600436106100365760003560e01c806321846c761461003b5780632eeac4c314610045575b600080fd5b610043610062565b005b6100436004803603602081101561005b57600080fd5b50356101d5565b6000546002546001546040805163043ddbd760e51b8152905133946001600160a01b03908116946323b872dd948794918316939216916387bb7ae091600480820192602092909190829003018186803b1580156100be57600080fd5b505afa1580156100d2573d6000803e3d6000fd5b505050506040513d60208110156100e857600080fd5b5051604080516001600160e01b031960e087901b1681526001600160a01b0394851660048201529290931660248301526044820152905160648083019260209291908290030181600087803b15801561014057600080fd5b505af1158015610154573d6000803e3d6000fd5b505050506040513d602081101561016a57600080fd5b505060015460408051636afadefb60e01b81526001600160a01b03848116600483015291519190921691636afadefb91602480830192600092919082900301818387803b1580156101ba57600080fd5b505af11580156101ce573d6000803e3d6000fd5b5050505050565b600154604080516331a9108f60e11b81526004810184905290516000926001600160a01b031691636352211e916024808301926020929190829003018186803b15801561022157600080fd5b505afa158015610235573d6000803e3d6000fd5b505050506040513d602081101561024b57600080fd5b50516001546040805163569e35db60e01b815260048101869052905192935033926000926001600160a01b03169163569e35db916024808301926020929190829003018186803b15801561029e57600080fd5b505afa1580156102b2573d6000803e3d6000fd5b505050506040513d60208110156102c857600080fd5b50516001546040805163e65d6b4960e01b815290519293506000926064926001600160a01b03169163e65d6b49916004808301926020929190829003018186803b15801561031557600080fd5b505afa158015610329573d6000803e3d6000fd5b505050506040513d602081101561033f57600080fd5b505183028161034a57fe5b60008054604080516323b872dd60e01b81526001600160a01b0389811660048301528a8116602483015295909404808803604486015290519095509316926323b872dd926064808201936020939283900390910190829087803b1580156103b057600080fd5b505af11580156103c4573d6000803e3d6000fd5b505050506040513d60208110156103da57600080fd5b505060008054600254604080516323b872dd60e01b81526001600160a01b038881166004830152928316602482015260448101869052905191909216926323b872dd92606480820193602093909283900390910190829087803b15801561044057600080fd5b505af1158015610454573d6000803e3d6000fd5b505050506040513d602081101561046a57600080fd5b505060015460408051630c83b45960e41b81526001600160a01b038681166004830152602482018990529151919092169163c83b459091604480830192600092919082900301818387803b1580156104c157600080fd5b505af11580156104d5573d6000803e3d6000fd5b50505050826001600160a01b03167f22e3ae3a20c49dce14046235895c7a3ffc0a6a5f3577c370177ad45fa619485d858760405180836001600160a01b031681526020018281526020019250505060405180910390a2505050505056fea2646970667358221220c4d46ef853aa753e24516d7c37c933d96d2904ff294fe4260bc712d8da46e6db64736f6c634300060c00334f776e61626c653a206e6577206f776e657220697320746865207a65726f2061646472657373a2646970667358221220d9620b6c77bffb097d123629a3dbf9c920a99e3b7fedca08ab65703e4d171b4264736f6c634300060c0033",
    "immutableReferences": {},
    "source": "pragma solidity ^0.6.0;\n\nimport \"@openzeppelin/contracts/access/Ownable.sol\";\nimport \"./EventNFT.sol\";\nimport \"./EventMarketplace.sol\";\n\ncontract EventTicketsFactory is Ownable {\n    struct Event {\n        string eventName;\n        string eventSymbol;\n        uint256 ticketPrice;\n        uint256 totalSupply;\n        address marketplace;\n    }\n\n    address[] private activeEvents;\n    mapping(address => Event) private activeEventsMapping;\n\n    event Created(address ntfAddress, address marketplaceAddress);\n\n    // Creates new NFT and a marketplace for its purchase\n    function createNewEvent(\n        EventToken token,\n        string memory eventName,\n        string memory eventSymbol,\n        uint256 ticketPrice,\n        uint256 totalSupply,\n        uint256 commission,\n        uint256 maxSell\n    ) public onlyOwner returns (address) {\n        EventNFT newEvent =\n            new EventNFT(\n                eventName,\n                eventSymbol,\n                ticketPrice,\n                totalSupply,\n                commission,\n                maxSell,\n                msg.sender\n            );\n\n        EventMarketplace newMarketplace =\n            new EventMarketplace(token, newEvent);\n\n        address newEventAddress = address(newEvent);\n\n        activeEvents.push(newEventAddress);\n        activeEventsMapping[newEventAddress] = Event({\n            eventName: eventName,\n            eventSymbol: eventSymbol,\n            ticketPrice: ticketPrice,\n            totalSupply: totalSupply,\n            marketplace: address(newMarketplace)\n        });\n\n        emit Created(newEventAddress, address(newMarketplace));\n\n        return newEventAddress;\n    }\n\n    // Get all active events\n    function getActiveEvents() public view returns (address[] memory) {\n        return activeEvents;\n    }\n\n    // Get event's details\n    function getEventDetails(address eventAddress)\n        public\n        view\n        returns (\n            string memory,\n            string memory,\n            uint256,\n            uint256,\n            address\n        )\n    {\n        return (\n            activeEventsMapping[eventAddress].eventName,\n            activeEventsMapping[eventAddress].eventSymbol,\n            activeEventsMapping[eventAddress].ticketPrice,\n            activeEventsMapping[eventAddress].totalSupply,\n            activeEventsMapping[eventAddress].marketplace\n        );\n    }\n}\n",
    "sourcePath": "/app/contracts/EventTicketsFactory.sol",
    "compiler": {
        "name": "solc",
        "version": "0.6.12+commit.27d51765.Emscripten.clang"
    },
    "schemaVersion": "3.3.3",
    "updatedAt": "2021-12-02T10:32:11.610Z",
    "networkType": "ethereum",
    "devdoc": {
        "kind": "dev",
        "methods": {
            "owner()": {
                "details": "Returns the address of the current owner."
            },
            "renounceOwnership()": {
                "details": "Leaves the contract without owner. It will not be possible to call `onlyOwner` functions anymore. Can only be called by the current owner. NOTE: Renouncing ownership will leave the contract without an owner, thereby removing any functionality that is only available to the owner."
            },
            "transferOwnership(address)": {
                "details": "Transfers ownership of the contract to a new account (`newOwner`). Can only be called by the current owner."
            }
        },
        "version": 1
    },
    "userdoc": {
        "kind": "user",
        "methods": {},
        "version": 1
    }
}